{
  "address": "0xd82B2923d3EF290ed01Ad9f2cD41d6ed114Ae58e",
  "abi": [
    {
      "type": "constructor",
      "inputs": [
        {
          "name": "operator",
          "type": "address",
          "internalType": "address"
        },
        {
          "name": "maxCount",
          "type": "uint256",
          "internalType": "uint256"
        }
      ],
      "stateMutability": "nonpayable"
    },
    {
      "type": "function",
      "name": "approve",
      "inputs": [
        {
          "name": "to",
          "type": "address",
          "internalType": "address"
        },
        {
          "name": "tokenId",
          "type": "uint256",
          "internalType": "uint256"
        }
      ],
      "outputs": [],
      "stateMutability": "nonpayable"
    },
    {
      "type": "function",
      "name": "balanceOf",
      "inputs": [
        {
          "name": "owner",
          "type": "address",
          "internalType": "address"
        }
      ],
      "outputs": [
        {
          "name": "",
          "type": "uint256",
          "internalType": "uint256"
        }
      ],
      "stateMutability": "view"
    },
    {
      "type": "function",
      "name": "bark",
      "inputs": [],
      "outputs": [
        {
          "name": "",
          "type": "string",
          "internalType": "string"
        }
      ],
      "stateMutability": "view"
    },
    {
      "type": "function",
      "name": "getApproved",
      "inputs": [
        {
          "name": "tokenId",
          "type": "uint256",
          "internalType": "uint256"
        }
      ],
      "outputs": [
        {
          "name": "",
          "type": "address",
          "internalType": "address"
        }
      ],
      "stateMutability": "view"
    },
    {
      "type": "function",
      "name": "isApprovedForAll",
      "inputs": [
        {
          "name": "owner",
          "type": "address",
          "internalType": "address"
        },
        {
          "name": "operator",
          "type": "address",
          "internalType": "address"
        }
      ],
      "outputs": [
        {
          "name": "",
          "type": "bool",
          "internalType": "bool"
        }
      ],
      "stateMutability": "view"
    },
    {
      "type": "function",
      "name": "mint",
      "inputs": [
        {
          "name": "receiver",
          "type": "address",
          "internalType": "address"
        }
      ],
      "outputs": [
        {
          "name": "",
          "type": "uint256",
          "internalType": "uint256"
        }
      ],
      "stateMutability": "nonpayable"
    },
    {
      "type": "function",
      "name": "name",
      "inputs": [],
      "outputs": [
        {
          "name": "",
          "type": "string",
          "internalType": "string"
        }
      ],
      "stateMutability": "view"
    },
    {
      "type": "function",
      "name": "nextDoink",
      "inputs": [],
      "outputs": [
        {
          "name": "",
          "type": "uint256",
          "internalType": "uint256"
        }
      ],
      "stateMutability": "view"
    },
    {
      "type": "function",
      "name": "ownerOf",
      "inputs": [
        {
          "name": "tokenId",
          "type": "uint256",
          "internalType": "uint256"
        }
      ],
      "outputs": [
        {
          "name": "",
          "type": "address",
          "internalType": "address"
        }
      ],
      "stateMutability": "view"
    },
    {
      "type": "function",
      "name": "safeTransferFrom",
      "inputs": [
        {
          "name": "from",
          "type": "address",
          "internalType": "address"
        },
        {
          "name": "to",
          "type": "address",
          "internalType": "address"
        },
        {
          "name": "tokenId",
          "type": "uint256",
          "internalType": "uint256"
        }
      ],
      "outputs": [],
      "stateMutability": "nonpayable"
    },
    {
      "type": "function",
      "name": "safeTransferFrom",
      "inputs": [
        {
          "name": "from",
          "type": "address",
          "internalType": "address"
        },
        {
          "name": "to",
          "type": "address",
          "internalType": "address"
        },
        {
          "name": "tokenId",
          "type": "uint256",
          "internalType": "uint256"
        },
        {
          "name": "data",
          "type": "bytes",
          "internalType": "bytes"
        }
      ],
      "outputs": [],
      "stateMutability": "nonpayable"
    },
    {
      "type": "function",
      "name": "setApprovalForAll",
      "inputs": [
        {
          "name": "operator",
          "type": "address",
          "internalType": "address"
        },
        {
          "name": "approved",
          "type": "bool",
          "internalType": "bool"
        }
      ],
      "outputs": [],
      "stateMutability": "nonpayable"
    },
    {
      "type": "function",
      "name": "supportsInterface",
      "inputs": [
        {
          "name": "interfaceId",
          "type": "bytes4",
          "internalType": "bytes4"
        }
      ],
      "outputs": [
        {
          "name": "",
          "type": "bool",
          "internalType": "bool"
        }
      ],
      "stateMutability": "view"
    },
    {
      "type": "function",
      "name": "symbol",
      "inputs": [],
      "outputs": [
        {
          "name": "",
          "type": "string",
          "internalType": "string"
        }
      ],
      "stateMutability": "view"
    },
    {
      "type": "function",
      "name": "tokenURI",
      "inputs": [
        {
          "name": "tokenId",
          "type": "uint256",
          "internalType": "uint256"
        }
      ],
      "outputs": [
        {
          "name": "",
          "type": "string",
          "internalType": "string"
        }
      ],
      "stateMutability": "view"
    },
    {
      "type": "function",
      "name": "transferFrom",
      "inputs": [
        {
          "name": "from",
          "type": "address",
          "internalType": "address"
        },
        {
          "name": "to",
          "type": "address",
          "internalType": "address"
        },
        {
          "name": "tokenId",
          "type": "uint256",
          "internalType": "uint256"
        }
      ],
      "outputs": [],
      "stateMutability": "nonpayable"
    },
    {
      "type": "event",
      "name": "Approval",
      "inputs": [
        {
          "name": "owner",
          "type": "address",
          "indexed": true,
          "internalType": "address"
        },
        {
          "name": "approved",
          "type": "address",
          "indexed": true,
          "internalType": "address"
        },
        {
          "name": "tokenId",
          "type": "uint256",
          "indexed": true,
          "internalType": "uint256"
        }
      ],
      "anonymous": false
    },
    {
      "type": "event",
      "name": "ApprovalForAll",
      "inputs": [
        {
          "name": "owner",
          "type": "address",
          "indexed": true,
          "internalType": "address"
        },
        {
          "name": "operator",
          "type": "address",
          "indexed": true,
          "internalType": "address"
        },
        {
          "name": "approved",
          "type": "bool",
          "indexed": false,
          "internalType": "bool"
        }
      ],
      "anonymous": false
    },
    {
      "type": "event",
      "name": "Minted",
      "inputs": [
        {
          "name": "receiver",
          "type": "address",
          "indexed": true,
          "internalType": "address"
        },
        {
          "name": "id",
          "type": "uint256",
          "indexed": true,
          "internalType": "uint256"
        }
      ],
      "anonymous": false
    },
    {
      "type": "event",
      "name": "Transfer",
      "inputs": [
        {
          "name": "from",
          "type": "address",
          "indexed": true,
          "internalType": "address"
        },
        {
          "name": "to",
          "type": "address",
          "indexed": true,
          "internalType": "address"
        },
        {
          "name": "tokenId",
          "type": "uint256",
          "indexed": true,
          "internalType": "uint256"
        }
      ],
      "anonymous": false
    },
    {
      "type": "error",
      "name": "ERC721IncorrectOwner",
      "inputs": [
        {
          "name": "sender",
          "type": "address",
          "internalType": "address"
        },
        {
          "name": "tokenId",
          "type": "uint256",
          "internalType": "uint256"
        },
        {
          "name": "owner",
          "type": "address",
          "internalType": "address"
        }
      ]
    },
    {
      "type": "error",
      "name": "ERC721InsufficientApproval",
      "inputs": [
        {
          "name": "operator",
          "type": "address",
          "internalType": "address"
        },
        {
          "name": "tokenId",
          "type": "uint256",
          "internalType": "uint256"
        }
      ]
    },
    {
      "type": "error",
      "name": "ERC721InvalidApprover",
      "inputs": [
        {
          "name": "approver",
          "type": "address",
          "internalType": "address"
        }
      ]
    },
    {
      "type": "error",
      "name": "ERC721InvalidOperator",
      "inputs": [
        {
          "name": "operator",
          "type": "address",
          "internalType": "address"
        }
      ]
    },
    {
      "type": "error",
      "name": "ERC721InvalidOwner",
      "inputs": [
        {
          "name": "owner",
          "type": "address",
          "internalType": "address"
        }
      ]
    },
    {
      "type": "error",
      "name": "ERC721InvalidReceiver",
      "inputs": [
        {
          "name": "receiver",
          "type": "address",
          "internalType": "address"
        }
      ]
    },
    {
      "type": "error",
      "name": "ERC721InvalidSender",
      "inputs": [
        {
          "name": "sender",
          "type": "address",
          "internalType": "address"
        }
      ]
    },
    {
      "type": "error",
      "name": "ERC721NonexistentToken",
      "inputs": [
        {
          "name": "tokenId",
          "type": "uint256",
          "internalType": "uint256"
        }
      ]
    }
  ],
  "bytecode": {
    "object": "0x60c060405260016006553480156200001657600080fd5b5060405162001b9638038062001b968339810160408190526200003991620000c9565b60405180604001604052806005815260200164446f696e6b60d81b81525060405180604001604052806005815260200164444f494e4b60d81b8152508160009081620000869190620001ac565b506001620000958282620001ac565b5050506001600160a01b038216620000b1573360a052620000bf565b6001600160a01b03821660a0525b6080525062000278565b60008060408385031215620000dd57600080fd5b82516001600160a01b0381168114620000f557600080fd5b6020939093015192949293505050565b634e487b7160e01b600052604160045260246000fd5b600181811c908216806200013057607f821691505b6020821081036200015157634e487b7160e01b600052602260045260246000fd5b50919050565b601f821115620001a7576000816000526020600020601f850160051c81016020861015620001825750805b601f850160051c820191505b81811015620001a3578281556001016200018e565b5050505b505050565b81516001600160401b03811115620001c857620001c862000105565b620001e081620001d984546200011b565b8462000157565b602080601f831160018114620002185760008415620001ff5750858301515b600019600386901b1c1916600185901b178555620001a3565b600085815260208120601f198616915b82811015620002495788860151825594840194600190910190840162000228565b5085821015620002685787850151600019600388901b60f8161c191681555b5050505050600190811b01905550565b60805160a0516118f86200029e60003960006105890152600061063b01526118f86000f3fe608060405234801561001057600080fd5b50600436106101005760003560e01c80636a62784211610097578063a22cb46511610066578063a22cb46514610210578063b88d4fde14610223578063c87b56dd14610236578063e985e9c51461024957600080fd5b80636a627842146101da57806370a08231146101ed578063864f4a9a1461020057806395d89b411461020857600080fd5b806323b872dd116100d357806323b872dd1461018f57806342842e0e146101a2578063534cfa3d146101b55780636352211e146101c757600080fd5b806301ffc9a71461010557806306fdde031461012d578063081812fc14610142578063095ea7b31461017a575b600080fd5b6101186101133660046114ac565b610292565b60405190151581526020015b60405180910390f35b610135610377565b6040516101249190611537565b61015561015036600461154a565b610409565b60405173ffffffffffffffffffffffffffffffffffffffff9091168152602001610124565b61018d610188366004611587565b61043f565b005b61018d61019d3660046115b1565b61044e565b61018d6101b03660046115b1565b610544565b6006545b604051908152602001610124565b6101556101d536600461154a565b610564565b6101b96101e83660046115ed565b61056f565b6101b96101fb3660046115ed565b61080d565b610135610888565b610135610934565b61018d61021e366004611608565b610943565b61018d610231366004611673565b61094e565b61013561024436600461154a565b610965565b61011861025736600461176d565b73ffffffffffffffffffffffffffffffffffffffff918216600090815260056020908152604080832093909416825291909152205460ff1690565b60007fffffffff0000000000000000000000000000000000000000000000000000000082167f80ac58cd00000000000000000000000000000000000000000000000000000000148061032557507fffffffff0000000000000000000000000000000000000000000000000000000082167f5b5e139f00000000000000000000000000000000000000000000000000000000145b8061037157507f01ffc9a7000000000000000000000000000000000000000000000000000000007fffffffff000000000000000000000000000000000000000000000000000000008316145b92915050565b606060008054610386906117a0565b80601f01602080910402602001604051908101604052809291908181526020018280546103b2906117a0565b80156103ff5780601f106103d4576101008083540402835291602001916103ff565b820191906000526020600020905b8154815290600101906020018083116103e257829003601f168201915b5050505050905090565b6000610414826109da565b5060008281526004602052604090205473ffffffffffffffffffffffffffffffffffffffff16610371565b61044a828233610a39565b5050565b73ffffffffffffffffffffffffffffffffffffffff82166104a3576040517f64a0ae92000000000000000000000000000000000000000000000000000000008152600060048201526024015b60405180910390fd5b60006104b0838333610a46565b90508373ffffffffffffffffffffffffffffffffffffffff168173ffffffffffffffffffffffffffffffffffffffff161461053e576040517f64283d7b00000000000000000000000000000000000000000000000000000000815273ffffffffffffffffffffffffffffffffffffffff8086166004830152602482018490528216604482015260640161049a565b50505050565b61055f8383836040518060200160405280600081525061094e565b505050565b6000610371826109da565b60003373ffffffffffffffffffffffffffffffffffffffff7f00000000000000000000000000000000000000000000000000000000000000001614610636576040517f08c379a000000000000000000000000000000000000000000000000000000000815260206004820152602360248201527f556e617574686f72697a656420746f2063616c6c20746869732066756e63746960448201527f6f6e2e0000000000000000000000000000000000000000000000000000000000606482015260840161049a565b6006547f000000000000000000000000000000000000000000000000000000000000000081106106c2576040517f08c379a000000000000000000000000000000000000000000000000000000000815260206004820152600c60248201527f4d617820726561636865642e0000000000000000000000000000000000000000604482015260640161049a565b6001600660008282546106d591906117f3565b909155505073ffffffffffffffffffffffffffffffffffffffff831660009081526007602052604090205460ff161561076a576040517f08c379a000000000000000000000000000000000000000000000000000000000815260206004820152600f60248201527f416c7265616479206d696e7465642e0000000000000000000000000000000000604482015260640161049a565b73ffffffffffffffffffffffffffffffffffffffff8316600090815260076020526040902080547fffffffffffffffffffffffffffffffffffffffffffffffffffffffffffffff001660011790556107c28382610bc3565b604051819073ffffffffffffffffffffffffffffffffffffffff8516907f30385c845b448a36257a6a1716e6ad2e1bc2cbe333cde1e69fe849ad6511adfe90600090a390505b919050565b600073ffffffffffffffffffffffffffffffffffffffff821661085f576040517f89c62b640000000000000000000000000000000000000000000000000000000081526000600482015260240161049a565b5073ffffffffffffffffffffffffffffffffffffffff1660009081526003602052604090205490565b606060006108953361080d565b116108fc576040517f08c379a000000000000000000000000000000000000000000000000000000000815260206004820152601960248201527f596f75206e656564206120646f696e6b20746f206261726b2100000000000000604482015260640161049a565b5060408051808201909152600581527f626f696e6b000000000000000000000000000000000000000000000000000000602082015290565b606060018054610386906117a0565b61044a338383610bdd565b61095984848461044e565b61053e84848484610cda565b6060610970826109da565b50600061098860408051602081019091526000815290565b905060008151116109a857604051806020016040528060008152506109d3565b806109b284610ed1565b6040516020016109c392919061182d565b6040516020818303038152906040525b9392505050565b60008181526002602052604081205473ffffffffffffffffffffffffffffffffffffffff1680610371576040517f7e2732890000000000000000000000000000000000000000000000000000000081526004810184905260240161049a565b61055f8383836001610f8f565b60008281526002602052604081205473ffffffffffffffffffffffffffffffffffffffff90811690831615610a8057610a8081848661115a565b73ffffffffffffffffffffffffffffffffffffffff811615610af657610aaa600085600080610f8f565b73ffffffffffffffffffffffffffffffffffffffff8116600090815260036020526040902080547fffffffffffffffffffffffffffffffffffffffffffffffffffffffffffffffff0190555b73ffffffffffffffffffffffffffffffffffffffff851615610b3f5773ffffffffffffffffffffffffffffffffffffffff85166000908152600360205260409020805460010190555b60008481526002602052604080822080547fffffffffffffffffffffffff00000000000000000000000000000000000000001673ffffffffffffffffffffffffffffffffffffffff89811691821790925591518793918516917fddf252ad1be2c89b69c2b068fc378daa952ba7f163c4a11628f55a4df523b3ef91a4949350505050565b61044a82826040518060200160405280600081525061120a565b73ffffffffffffffffffffffffffffffffffffffff8216610c42576040517f5b08ba1800000000000000000000000000000000000000000000000000000000815273ffffffffffffffffffffffffffffffffffffffff8316600482015260240161049a565b73ffffffffffffffffffffffffffffffffffffffff83811660008181526005602090815260408083209487168084529482529182902080547fffffffffffffffffffffffffffffffffffffffffffffffffffffffffffffff001686151590811790915591519182527f17307eab39ab6107e8899845ad3d59bd9653f200f220920489ca2b5937696c31910160405180910390a3505050565b73ffffffffffffffffffffffffffffffffffffffff83163b1561053e576040517f150b7a0200000000000000000000000000000000000000000000000000000000815273ffffffffffffffffffffffffffffffffffffffff84169063150b7a0290610d4f90339088908790879060040161185c565b6020604051808303816000875af1925050508015610da8575060408051601f3d9081017fffffffffffffffffffffffffffffffffffffffffffffffffffffffffffffffe0168201909252610da5918101906118a5565b60015b610e37573d808015610dd6576040519150601f19603f3d011682016040523d82523d6000602084013e610ddb565b606091505b508051600003610e2f576040517f64a0ae9200000000000000000000000000000000000000000000000000000000815273ffffffffffffffffffffffffffffffffffffffff8516600482015260240161049a565b805181602001fd5b7fffffffff0000000000000000000000000000000000000000000000000000000081167f150b7a020000000000000000000000000000000000000000000000000000000014610eca576040517f64a0ae9200000000000000000000000000000000000000000000000000000000815273ffffffffffffffffffffffffffffffffffffffff8516600482015260240161049a565b5050505050565b60606000610ede83611221565b600101905060008167ffffffffffffffff811115610efe57610efe611644565b6040519080825280601f01601f191660200182016040528015610f28576020820181803683370190505b5090508181016020015b7fffffffffffffffffffffffffffffffffffffffffffffffffffffffffffffffff017f3031323334353637383961626364656600000000000000000000000000000000600a86061a8153600a8504945084610f3257509392505050565b8080610fb0575073ffffffffffffffffffffffffffffffffffffffff821615155b15611105576000610fc0846109da565b905073ffffffffffffffffffffffffffffffffffffffff83161580159061101357508273ffffffffffffffffffffffffffffffffffffffff168173ffffffffffffffffffffffffffffffffffffffff1614155b8015611052575073ffffffffffffffffffffffffffffffffffffffff80821660009081526005602090815260408083209387168352929052205460ff16155b156110a1576040517fa9fbf51f00000000000000000000000000000000000000000000000000000000815273ffffffffffffffffffffffffffffffffffffffff8416600482015260240161049a565b811561110357838573ffffffffffffffffffffffffffffffffffffffff168273ffffffffffffffffffffffffffffffffffffffff167f8c5be1e5ebec7d5bd14f71427d1e84f3dd0314c0f7b2291e5b200ac8c7c3b92560405160405180910390a45b505b5050600090815260046020526040902080547fffffffffffffffffffffffff00000000000000000000000000000000000000001673ffffffffffffffffffffffffffffffffffffffff92909216919091179055565b611165838383611303565b61055f5773ffffffffffffffffffffffffffffffffffffffff83166111b9576040517f7e2732890000000000000000000000000000000000000000000000000000000081526004810182905260240161049a565b6040517f177e802f00000000000000000000000000000000000000000000000000000000815273ffffffffffffffffffffffffffffffffffffffff831660048201526024810182905260440161049a565b61121483836113ca565b61055f6000848484610cda565b6000807a184f03e93ff9f4daa797ed6e38ed64bf6a1f010000000000000000831061126a577a184f03e93ff9f4daa797ed6e38ed64bf6a1f010000000000000000830492506040015b6d04ee2d6d415b85acef81000000008310611296576d04ee2d6d415b85acef8100000000830492506020015b662386f26fc1000083106112b457662386f26fc10000830492506010015b6305f5e10083106112cc576305f5e100830492506008015b61271083106112e057612710830492506004015b606483106112f2576064830492506002015b600a83106103715760010192915050565b600073ffffffffffffffffffffffffffffffffffffffff8316158015906113c257508273ffffffffffffffffffffffffffffffffffffffff168473ffffffffffffffffffffffffffffffffffffffff161480611391575073ffffffffffffffffffffffffffffffffffffffff80851660009081526005602090815260408083209387168352929052205460ff165b806113c2575060008281526004602052604090205473ffffffffffffffffffffffffffffffffffffffff8481169116145b949350505050565b73ffffffffffffffffffffffffffffffffffffffff821661141a576040517f64a0ae920000000000000000000000000000000000000000000000000000000081526000600482015260240161049a565b600061142883836000610a46565b905073ffffffffffffffffffffffffffffffffffffffff81161561055f576040517f73c6ac6e0000000000000000000000000000000000000000000000000000000081526000600482015260240161049a565b7fffffffff00000000000000000000000000000000000000000000000000000000811681146114a957600080fd5b50565b6000602082840312156114be57600080fd5b81356109d38161147b565b60005b838110156114e45781810151838201526020016114cc565b50506000910152565b600081518084526115058160208601602086016114c9565b601f017fffffffffffffffffffffffffffffffffffffffffffffffffffffffffffffffe0169290920160200192915050565b6020815260006109d360208301846114ed565b60006020828403121561155c57600080fd5b5035919050565b803573ffffffffffffffffffffffffffffffffffffffff8116811461080857600080fd5b6000806040838503121561159a57600080fd5b6115a383611563565b946020939093013593505050565b6000806000606084860312156115c657600080fd5b6115cf84611563565b92506115dd60208501611563565b9150604084013590509250925092565b6000602082840312156115ff57600080fd5b6109d382611563565b6000806040838503121561161b57600080fd5b61162483611563565b91506020830135801515811461163957600080fd5b809150509250929050565b7f4e487b7100000000000000000000000000000000000000000000000000000000600052604160045260246000fd5b6000806000806080858703121561168957600080fd5b61169285611563565b93506116a060208601611563565b925060408501359150606085013567ffffffffffffffff808211156116c457600080fd5b818701915087601f8301126116d857600080fd5b8135818111156116ea576116ea611644565b604051601f82017fffffffffffffffffffffffffffffffffffffffffffffffffffffffffffffffe0908116603f0116810190838211818310171561173057611730611644565b816040528281528a602084870101111561174957600080fd5b82602086016020830137600060208483010152809550505050505092959194509250565b6000806040838503121561178057600080fd5b61178983611563565b915061179760208401611563565b90509250929050565b600181811c908216806117b457607f821691505b6020821081036117ed577f4e487b7100000000000000000000000000000000000000000000000000000000600052602260045260246000fd5b50919050565b80820180821115610371577f4e487b7100000000000000000000000000000000000000000000000000000000600052601160045260246000fd5b6000835161183f8184602088016114c9565b8351908301906118538183602088016114c9565b01949350505050565b600073ffffffffffffffffffffffffffffffffffffffff80871683528086166020840152508360408301526080606083015261189b60808301846114ed565b9695505050505050565b6000602082840312156118b757600080fd5b81516109d38161147b56fea26469706673582212202b037d68ff0ea08857517ce431ef219ce1048f96f6b59b7c2dc3121adde3846864736f6c63430008170033",
    "linkReferences": {}
  },
  "methodIdentifiers": {
    "approve(address,uint256)": "095ea7b3",
    "balanceOf(address)": "70a08231",
    "bark()": "864f4a9a",
    "getApproved(uint256)": "081812fc",
    "isApprovedForAll(address,address)": "e985e9c5",
    "mint(address)": "6a627842",
    "name()": "06fdde03",
    "nextDoink()": "534cfa3d",
    "ownerOf(uint256)": "6352211e",
    "safeTransferFrom(address,address,uint256)": "42842e0e",
    "safeTransferFrom(address,address,uint256,bytes)": "b88d4fde",
    "setApprovalForAll(address,bool)": "a22cb465",
    "supportsInterface(bytes4)": "01ffc9a7",
    "symbol()": "95d89b41",
    "tokenURI(uint256)": "c87b56dd",
    "transferFrom(address,address,uint256)": "23b872dd"
  },
  "id": 31
}